:02000000219647
:0200030001807A
:07000B00C28C758CFF80120E
:020013000140AA
:07001B00C28E758DFF80020B
:0D00230032C204853D33853E34853F3632C0
:10004000C0D0C0E0C0F0C08275D008EA258BFAEBC2
:10005000358DFBE43CFCE58B8530F0A4ADF0E58DFF
:100060008530F0A42DF4FDE435F0F4C50D2EED3F00
:100070005004AE8BAF8D758B00758D00D28E803E97
:10008000C0D0C0E0C0F0C08275D008EA258AFAEB83
:10009000358CFBE43CFCE58A8530F0A4ADF0E58CC2
:1000A0008530F0A42DF4FDE435F0F4C50D2EED3FC0
:0F00B0005004AE8AAF8C758A00758C00D28CE834
:0F00BF004012B205D2047800B4000280077EFF21
:1000CE007FFFD206E48531F084A2E09200E5F0F9DC
:0E00DE007009853D33853E34853F36B5333796
:1000EC002003343004318534F0EEA4ADF08534F0C7
:1000FC00EFA4D33DFDE435F0C50D758204F0EDF0B1
:10010C0074FA300002640F3001060303300501C499
:0F011C00540F4535F590E9B5361C2002197401D2
:10012B0030000123300107A20592E3B392E2F5827E
:10013B00E537F0E538F0E9B5390AE540B2E7F540C7
:10014B0075820CF008E8B532398A3A8B3B8C3CE46B
:0F015B00F8FAFBFCE53C7016C3E53A9541E53B2D
:0F016A009542500BE5437945D7C47944D7D2036A
:1001790074FF254492025004F544800825459203F2
:100189005002F545D082D0F0D0E0D0D03275820748
:0F0199007432F07470F074B0F075820B7430F043
:0F01A8007470F074B0F075820B7582087401F0FA
:0F01B7007400F07582057401F07400F075820613
:0F01C6007401F07400F07582097401F07400F098
:0F01D50075820A7401F07400F075D00075815FB7
:0F01E40075899975880575A80F7598137587002B
:0F01F300750EFF750FFF7530AA75311E75323A04
:0F0202007533FF7534FF7536FF753DFF753EFF91
:0F021100753FFF7535007539FF7537017538007A
:0F0220007520007541007542007544007545005A
:0E022F00754300D2AF20B4FDC2B4C2B5C29870
:10023D003098FDE5996044C2983098FDAE99C2980A
:10024D003098FDAF99D2B4F5F0C465F07029E5F0A2
:0F025D00900264540F2373418841C341DB41E594
:10026C0041F26100611F61294184418441844184D0
:10027C004184612D61386143D2078037D2B4C2AF5B
:0F028C00A83AA93BAA3CD2AFEA54F060067A0F19
:10029B0079FF78FFE52054F02AC299F5993099FD42
:1002AB00E9C299F5993099FDE8C299F5993099FD14
:1002BB00743F5220D2B54134C2AF8E3D8F3ED2AF88
:1002CB00A28C828E40EEC2AF8E338F34D2AF41BF41
:1002DB00C2AF8E388F37D2AF80DAC2AF758208EFDC
:0F02EB00F0EEF0D2AF41BF8E398F3FA28C828EE2
:1002FA0040C38F3641BFEE30E702B205A2E6920153
:0F030A00543FC2AF5340C04240E54075820CF0F3
:10031900D2AF8F3541BFC2AF8E428F41D2AF41BFFD
:0F0329008F4341BF8EF0EFF4B5F01A8E3241BF13
:0F0338008EF0EFF4B5F00F8E3141BF8EF0EFF481
:09034700B5F0048E3041BF418481
:00000001FF
